{"abi":[{"type":"constructor","inputs":[],"stateMutability":"nonpayable"},{"type":"function","name":"CONTRACT_VERSION","inputs":[],"outputs":[{"name":"","type":"string","internalType":"string"}],"stateMutability":"view"},{"type":"function","name":"CONTRACT_VERSION_NUMBER","inputs":[],"outputs":[{"name":"","type":"uint256","internalType":"uint256"}],"stateMutability":"view"},{"type":"function","name":"INITIAL_TRUST_SCORE","inputs":[],"outputs":[{"name":"","type":"uint256","internalType":"uint256"}],"stateMutability":"view"},{"type":"function","name":"MAX_TRUST_SCORE","inputs":[],"outputs":[{"name":"","type":"uint256","internalType":"uint256"}],"stateMutability":"view"},{"type":"function","name":"TRUST_PRECISION","inputs":[],"outputs":[{"name":"","type":"uint256","internalType":"uint256"}],"stateMutability":"view"},{"type":"function","name":"agents","inputs":[{"name":"","type":"uint256","internalType":"uint256"}],"outputs":[{"name":"name","type":"string","internalType":"string"},{"name":"serviceEndpoint","type":"string","internalType":"string"},{"name":"trustScore","type":"uint256","internalType":"uint256"},{"name":"actionCount","type":"uint256","internalType":"uint256"},{"name":"confirmedCount","type":"uint256","internalType":"uint256"},{"name":"createdAt","type":"uint256","internalType":"uint256"},{"name":"lastActive","type":"uint256","internalType":"uint256"},{"name":"isActive","type":"bool","internalType":"bool"},{"name":"registrationVersion","type":"uint256","internalType":"uint256"}],"stateMutability":"view"},{"type":"function","name":"applyTrustDelta","inputs":[{"name":"tokenId","type":"uint256","internalType":"uint256"},{"name":"delta","type":"int256","internalType":"int256"},{"name":"reason","type":"string","internalType":"string"}],"outputs":[],"stateMutability":"nonpayable"},{"type":"function","name":"approve","inputs":[{"name":"","type":"address","internalType":"address"},{"name":"","type":"uint256","internalType":"uint256"}],"outputs":[],"stateMutability":"pure"},{"type":"function","name":"authorizeOracle","inputs":[{"name":"oracle","type":"address","internalType":"address"}],"outputs":[],"stateMutability":"nonpayable"},{"type":"function","name":"authorizedOracles","inputs":[{"name":"","type":"address","internalType":"address"}],"outputs":[{"name":"","type":"bool","internalType":"bool"}],"stateMutability":"view"},{"type":"function","name":"balanceOf","inputs":[{"name":"owner","type":"address","internalType":"address"}],"outputs":[{"name":"","type":"uint256","internalType":"uint256"}],"stateMutability":"view"},{"type":"function","name":"deactivateAgent","inputs":[{"name":"tokenId","type":"uint256","internalType":"uint256"}],"outputs":[],"stateMutability":"nonpayable"},{"type":"function","name":"getAgent","inputs":[{"name":"tokenId","type":"uint256","internalType":"uint256"}],"outputs":[{"name":"","type":"tuple","internalType":"struct AMAIIdentity.AgentMetadata","components":[{"name":"name","type":"string","internalType":"string"},{"name":"serviceEndpoint","type":"string","internalType":"string"},{"name":"trustScore","type":"uint256","internalType":"uint256"},{"name":"actionCount","type":"uint256","internalType":"uint256"},{"name":"confirmedCount","type":"uint256","internalType":"uint256"},{"name":"createdAt","type":"uint256","internalType":"uint256"},{"name":"lastActive","type":"uint256","internalType":"uint256"},{"name":"isActive","type":"bool","internalType":"bool"},{"name":"registrationVersion","type":"uint256","internalType":"uint256"}]}],"stateMutability":"view"},{"type":"function","name":"getAgentByOwner","inputs":[{"name":"owner","type":"address","internalType":"address"}],"outputs":[{"name":"","type":"uint256","internalType":"uint256"}],"stateMutability":"view"},{"type":"function","name":"getAgentVersion","inputs":[{"name":"tokenId","type":"uint256","internalType":"uint256"}],"outputs":[{"name":"","type":"uint256","internalType":"uint256"}],"stateMutability":"view"},{"type":"function","name":"getAgentWithVersionInfo","inputs":[{"name":"tokenId","type":"uint256","internalType":"uint256"}],"outputs":[{"name":"agent","type":"tuple","internalType":"struct AMAIIdentity.AgentMetadata","components":[{"name":"name","type":"string","internalType":"string"},{"name":"serviceEndpoint","type":"string","internalType":"string"},{"name":"trustScore","type":"uint256","internalType":"uint256"},{"name":"actionCount","type":"uint256","internalType":"uint256"},{"name":"confirmedCount","type":"uint256","internalType":"uint256"},{"name":"createdAt","type":"uint256","internalType":"uint256"},{"name":"lastActive","type":"uint256","internalType":"uint256"},{"name":"isActive","type":"bool","internalType":"bool"},{"name":"registrationVersion","type":"uint256","internalType":"uint256"}]},{"name":"currentVersion","type":"uint256","internalType":"uint256"},{"name":"versionsBehind","type":"uint256","internalType":"uint256"}],"stateMutability":"view"},{"type":"function","name":"getApproved","inputs":[{"name":"tokenId","type":"uint256","internalType":"uint256"}],"outputs":[{"name":"","type":"address","internalType":"address"}],"stateMutability":"view"},{"type":"function","name":"getConfirmationRate","inputs":[{"name":"tokenId","type":"uint256","internalType":"uint256"}],"outputs":[{"name":"","type":"uint256","internalType":"uint256"}],"stateMutability":"view"},{"type":"function","name":"getContractInfo","inputs":[],"outputs":[{"name":"version","type":"string","internalType":"string"},{"name":"versionNumber","type":"uint256","internalType":"uint256"},{"name":"chainId","type":"uint256","internalType":"uint256"},{"name":"contractAddress","type":"address","internalType":"address"},{"name":"tokenName","type":"string","internalType":"string"},{"name":"tokenSymbol","type":"string","internalType":"string"}],"stateMutability":"view"},{"type":"function","name":"getTrustScore","inputs":[{"name":"tokenId","type":"uint256","internalType":"uint256"}],"outputs":[{"name":"","type":"uint256","internalType":"uint256"}],"stateMutability":"view"},{"type":"function","name":"isApprovedForAll","inputs":[{"name":"owner","type":"address","internalType":"address"},{"name":"operator","type":"address","internalType":"address"}],"outputs":[{"name":"","type":"bool","internalType":"bool"}],"stateMutability":"view"},{"type":"function","name":"isLatestVersion","inputs":[{"name":"tokenId","type":"uint256","internalType":"uint256"}],"outputs":[{"name":"","type":"bool","internalType":"bool"}],"stateMutability":"view"},{"type":"function","name":"mintAgent","inputs":[{"name":"to","type":"address","internalType":"address"},{"name":"name","type":"string","internalType":"string"},{"name":"serviceEndpoint","type":"string","internalType":"string"}],"outputs":[{"name":"","type":"uint256","internalType":"uint256"}],"stateMutability":"nonpayable"},{"type":"function","name":"name","inputs":[],"outputs":[{"name":"","type":"string","internalType":"string"}],"stateMutability":"view"},{"type":"function","name":"owner","inputs":[],"outputs":[{"name":"","type":"address","internalType":"address"}],"stateMutability":"view"},{"type":"function","name":"ownerOf","inputs":[{"name":"tokenId","type":"uint256","internalType":"uint256"}],"outputs":[{"name":"","type":"address","internalType":"address"}],"stateMutability":"view"},{"type":"function","name":"ownerToAgent","inputs":[{"name":"","type":"address","internalType":"address"}],"outputs":[{"name":"","type":"uint256","internalType":"uint256"}],"stateMutability":"view"},{"type":"function","name":"recordAction","inputs":[{"name":"tokenId","type":"uint256","internalType":"uint256"}],"outputs":[],"stateMutability":"nonpayable"},{"type":"function","name":"recordConfirmation","inputs":[{"name":"tokenId","type":"uint256","internalType":"uint256"}],"outputs":[],"stateMutability":"nonpayable"},{"type":"function","name":"renounceOwnership","inputs":[],"outputs":[],"stateMutability":"nonpayable"},{"type":"function","name":"revokeOracle","inputs":[{"name":"oracle","type":"address","internalType":"address"}],"outputs":[],"stateMutability":"nonpayable"},{"type":"function","name":"safeTransferFrom","inputs":[{"name":"from","type":"address","internalType":"address"},{"name":"to","type":"address","internalType":"address"},{"name":"tokenId","type":"uint256","internalType":"uint256"}],"outputs":[],"stateMutability":"nonpayable"},{"type":"function","name":"safeTransferFrom","inputs":[{"name":"from","type":"address","internalType":"address"},{"name":"to","type":"address","internalType":"address"},{"name":"tokenId","type":"uint256","internalType":"uint256"},{"name":"data","type":"bytes","internalType":"bytes"}],"outputs":[],"stateMutability":"nonpayable"},{"type":"function","name":"setApprovalForAll","inputs":[{"name":"","type":"address","internalType":"address"},{"name":"","type":"bool","internalType":"bool"}],"outputs":[],"stateMutability":"pure"},{"type":"function","name":"setBaseURI","inputs":[{"name":"baseURI","type":"string","internalType":"string"}],"outputs":[],"stateMutability":"nonpayable"},{"type":"function","name":"supportsInterface","inputs":[{"name":"interfaceId","type":"bytes4","internalType":"bytes4"}],"outputs":[{"name":"","type":"bool","internalType":"bool"}],"stateMutability":"view"},{"type":"function","name":"symbol","inputs":[],"outputs":[{"name":"","type":"string","internalType":"string"}],"stateMutability":"view"},{"type":"function","name":"tokenURI","inputs":[{"name":"tokenId","type":"uint256","internalType":"uint256"}],"outputs":[{"name":"","type":"string","internalType":"string"}],"stateMutability":"view"},{"type":"function","name":"totalAgents","inputs":[],"outputs":[{"name":"","type":"uint256","internalType":"uint256"}],"stateMutability":"view"},{"type":"function","name":"transferFrom","inputs":[{"name":"from","type":"address","internalType":"address"},{"name":"to","type":"address","internalType":"address"},{"name":"tokenId","type":"uint256","internalType":"uint256"}],"outputs":[],"stateMutability":"nonpayable"},{"type":"function","name":"transferOwnership","inputs":[{"name":"newOwner","type":"address","internalType":"address"}],"outputs":[],"stateMutability":"nonpayable"},{"type":"function","name":"updateServiceEndpoint","inputs":[{"name":"tokenId","type":"uint256","internalType":"uint256"},{"name":"newEndpoint","type":"string","internalType":"string"}],"outputs":[],"stateMutability":"nonpayable"},{"type":"function","name":"updateTrustScore","inputs":[{"name":"tokenId","type":"uint256","internalType":"uint256"},{"name":"newScore","type":"uint256","internalType":"uint256"},{"name":"reason","type":"string","internalType":"string"}],"outputs":[],"stateMutability":"nonpayable"},{"type":"event","name":"ActionConfirmed","inputs":[{"name":"tokenId","type":"uint256","indexed":true,"internalType":"uint256"},{"name":"confirmedCount","type":"uint256","indexed":false,"internalType":"uint256"}],"anonymous":false},{"type":"event","name":"ActionRecorded","inputs":[{"name":"tokenId","type":"uint256","indexed":true,"internalType":"uint256"},{"name":"actionCount","type":"uint256","indexed":false,"internalType":"uint256"}],"anonymous":false},{"type":"event","name":"AgentDeactivated","inputs":[{"name":"tokenId","type":"uint256","indexed":true,"internalType":"uint256"}],"anonymous":false},{"type":"event","name":"AgentMinted","inputs":[{"name":"tokenId","type":"uint256","indexed":true,"internalType":"uint256"},{"name":"owner","type":"address","indexed":true,"internalType":"address"},{"name":"name","type":"string","indexed":false,"internalType":"string"},{"name":"serviceEndpoint","type":"string","indexed":false,"internalType":"string"},{"name":"contractVersion","type":"uint256","indexed":false,"internalType":"uint256"}],"anonymous":false},{"type":"event","name":"Approval","inputs":[{"name":"owner","type":"address","indexed":true,"internalType":"address"},{"name":"approved","type":"address","indexed":true,"internalType":"address"},{"name":"tokenId","type":"uint256","indexed":true,"internalType":"uint256"}],"anonymous":false},{"type":"event","name":"ApprovalForAll","inputs":[{"name":"owner","type":"address","indexed":true,"internalType":"address"},{"name":"operator","type":"address","indexed":true,"internalType":"address"},{"name":"approved","type":"bool","indexed":false,"internalType":"bool"}],"anonymous":false},{"type":"event","name":"OracleAuthorized","inputs":[{"name":"oracle","type":"address","indexed":true,"internalType":"address"}],"anonymous":false},{"type":"event","name":"OracleRevoked","inputs":[{"name":"oracle","type":"address","indexed":true,"internalType":"address"}],"anonymous":false},{"type":"event","name":"OwnershipTransferred","inputs":[{"name":"previousOwner","type":"address","indexed":true,"internalType":"address"},{"name":"newOwner","type":"address","indexed":true,"internalType":"address"}],"anonymous":false},{"type":"event","name":"Transfer","inputs":[{"name":"from","type":"address","indexed":true,"internalType":"address"},{"name":"to","type":"address","indexed":true,"internalType":"address"},{"name":"tokenId","type":"uint256","indexed":true,"internalType":"uint256"}],"anonymous":false},{"type":"event","name":"TrustScoreUpdated","inputs":[{"name":"tokenId","type":"uint256","indexed":true,"internalType":"uint256"},{"name":"oldScore","type":"uint256","indexed":false,"internalType":"uint256"},{"name":"newScore","type":"uint256","indexed":false,"internalType":"uint256"},{"name":"reason","type":"string","indexed":false,"internalType":"string"}],"anonymous":false},{"type":"error","name":"ERC721IncorrectOwner","inputs":[{"name":"sender","type":"address","internalType":"address"},{"name":"tokenId","type":"uint256","internalType":"uint256"},{"name":"owner","type":"address","internalType":"address"}]},{"type":"error","name":"ERC721InsufficientApproval","inputs":[{"name":"operator","type":"address","internalType":"address"},{"name":"tokenId","type":"uint256","internalType":"uint256"}]},{"type":"error","name":"ERC721InvalidApprover","inputs":[{"name":"approver","type":"address","internalType":"address"}]},{"type":"error","name":"ERC721InvalidOperator","inputs":[{"name":"operator","type":"address","internalType":"address"}]},{"type":"error","name":"ERC721InvalidOwner","inputs":[{"name":"owner","type":"address","internalType":"address"}]},{"type":"error","name":"ERC721InvalidReceiver","inputs":[{"name":"receiver","type":"address","internalType":"address"}]},{"type":"error","name":"ERC721InvalidSender","inputs":[{"name":"sender","type":"address","internalType":"address"}]},{"type":"error","name":"ERC721NonexistentToken","inputs":[{"name":"tokenId","type":"uint256","internalType":"uint256"}]},{"type":"error","name":"OwnableInvalidOwner","inputs":[{"name":"owner","type":"address","internalType":"address"}]},{"type":"error","name":"OwnableUnauthorizedAccount","inputs":[{"name":"account","type":"address","internalType":"address"}]},{"type":"error","name":"ReentrancyGuardReentrantCall","inputs":[]}],"bytecode":{"object":"0x6080604052346103a857604080519081016001600160401b038111828210176102be576040908152601382527f414d4149204167656e74204964656e7469747900000000000000000000000000602083015280519081016001600160401b038111828210176102be576040526004815263414d414960e01b602082015281516001600160401b0381116102be575f54600181811c9116801561039e575b60208210146102a057601f811161033c575b50602092601f82116001146102dd57928192935f926102d2575b50508160011b915f199060031b1c1916175f555b80516001600160401b0381116102be57600154600181811c911680156102b4575b60208210146102a057601f811161023d575b50602091601f82116001146101dd579181925f926101d2575b50508160011b915f199060031b1c1916176001555b33156101bf5760068054336001600160a01b03198216811790925560405191906001600160a01b03167f8be0079c531659141344cd1fd0a4f28419497f9722a3daafe3b4186f6b6457e05f80a360017f9b779b17422d0df92223018b32b4d1fa46e071723d6817e2486d003becc55f00556001600a55612ee990816103ad8239f35b631e4fbdf760e01b5f525f60045260245ffd5b015190505f80610128565b601f1982169260015f52805f20915f5b8581106102255750836001951061020d575b505050811b0160015561013d565b01515f1960f88460031b161c191690555f80806101ff565b919260206001819286850151815501940192016101ed565b60015f527fb10e2d527612073b26eecdfd717e6a320cf44b4afac2b0732d9fcbe2b7fa0cf6601f830160051c81019160208410610296575b601f0160051c01905b81811061028b575061010f565b5f815560010161027e565b9091508190610275565b634e487b7160e01b5f52602260045260245ffd5b90607f16906100fd565b634e487b7160e01b5f52604160045260245ffd5b015190505f806100c8565b601f198216935f8052805f20915f5b868110610324575083600195961061030c575b505050811b015f556100dc565b01515f1960f88460031b161c191690555f80806102ff565b919260206001819286850151815501940192016102ec565b5f80527f290decd9548b62a8d60345a988386fc84ba6bc95484008f6362f93160ef3e563601f830160051c81019160208410610394575b601f0160051c01905b81811061038957506100ae565b5f815560010161037c565b9091508190610373565b90607f169061009c565b5f80fdfe6080806040526004361015610012575f80fd5b5f3560e01c90816301ffc9a714612113575080630381ee79146101f557806306fdde03146120f8578063081812fc146120bc578063095ea7b3146120445780630f13b76314611fdc57806311ba6b4a14611f11578063192db2eb14611d8a57806323b872dd14611d735780632de5aaf714611c9e57806338b9033314611c835780633fc070b914611c6657806342842e0e14611c3d5780634f18dd221461153a578063513856c81461148657806355f804b31461131e5780635983e6b0146112b957806361c992a31461127c5780636352211e1461124c5780636adf918114611167578063702f095f1461112357806370a08231146110d2578063715018a61461107757806374c8d3771461105a5780637cc1f86714610fe35780638216a09114610eac57806383f3d44814610e5d5780638d9ce9da14610d615780638da5cb5b14610d39578063941b668114610d1e57806395d89b4114610cef578063a22cb46514610c6c578063a4032ca014610a90578063a91a36e914610a73578063b88d4fde14610a12578063c5053712146109d5578063c87b56dd14610496578063d6300ce1146103b1578063e985e9c51461035a578063ea2d6d2b14610306578063f2fde38b14610280578063f6f5f4be146102315763fc7521d9146101f5575f80fd5b3461022d57602036600319011261022d576001600160a01b0361021661217e565b165f526008602052602060405f2054604051908152f35b5f80fd5b3461022d57602036600319011261022d576004355f81815260026020526040902054610267906001600160a01b0316151561257f565b5f5260076020526020600860405f200154604051908152f35b3461022d57602036600319011261022d5761029961217e565b6102a1612a4d565b6001600160a01b031680156102f357600680546001600160a01b0319811683179091556001600160a01b03167f8be0079c531659141344cd1fd0a4f28419497f9722a3daafe3b4186f6b6457e05f80a3005b631e4fbdf760e01b5f525f60045260245ffd5b3461022d57602036600319011261022d576004355f8181526002602052604090205461033c906001600160a01b0316151561257f565b5f5260076020526020620f4240600860405f20015414604051908152f35b3461022d57604036600319011261022d5761037361217e565b61037b612194565b9060018060a01b03165f52600560205260405f209060018060a01b03165f52602052602060ff60405f2054166040519015158152f35b3461022d57602036600319011261022d57600435335f52600960205260ff60405f2054168015610482575b6103e5906125c2565b5f81815260026020526040902054610407906001600160a01b0316151561257f565b805f52600760205261042260ff600760405f20015416612606565b805f526007602052600360405f200161043b8154612874565b90555f818152600760209081526040918290204260068201556003015491519182527ff386fca769146717c0a5785871e888f11b26786b1bae4e5754e573abe0df950691a2005b506006546001600160a01b031633146103dc565b3461022d57602036600319011261022d576004355f818152600260205260409020546104cc906001600160a01b0316151561257f565b5f52600760205260405f206040516104e3816121ce565b6104ec826124ce565b81526104fa600183016124ce565b6020820190815260028301549160408101908382526003850154906060810191825260048601549560808201968752600581015460a0830152600681015460c08301526105696064600860ff6007850154169360e0860194151585520154936101008101948552519704612a74565b966105976105906105896105806064895106612a74565b98519751612a74565b9551612a74565b9151612a74565b9151156109a9576105ca6040516105af6040826121ea565b600681526541637469766560d01b6020820152935b51612a74565b600696600796919591600191620f4240836105e48b61220b565b9a6040519b6105f3908d6121ea565b808c526105ff9061220b565b60208c019c90601f1901368e378b01602101905b610972575b50506040519b8c809c683d913730b6b2911d1160b91b60208301528051916020839201906029015e8c01602981017f222c226465736372697074696f6e223a22414d4149204167656e74204964656e9052604981017303a34ba3c9016902a393ab9ba1029b1b7b9329d160651b905281516020819301605d83015e0160290160348101601760f91b905281516020819301603583015e016034017111161132bc3a32b93730b62fbab936111d1160711b8382015281516020819301601383015e01016f222c2261747472696275746573223a5b60801b6012820152602281017f7b2274726169745f74797065223a2254727573742053636f7265222c2276616c9052633ab2911d60e11b604282015281516020819301604683015e01601201730b089b585e17dd985b1d59488e8c4c0c0c0c1f4b60621b6034820152604881017f7b2274726169745f74797065223a22416374696f6e73222c2276616c7565223a905281516020819301606883015e0160340160348101611f4b60f21b9052603681017f7b2274726169745f74797065223a22436f6e6669726d6174696f6e73222c227690526530b63ab2911d60d11b605682015281516020819301605c83015e0160340160288101611f4b60f21b9052602a81017f7b2274726169745f74797065223a22537461747573222c2276616c7565223a22905281516020819301604a83015e0160280162089f4b60ea1b6022820152602581017f7b2274726169745f74797065223a22526567697374726174696f6e205665727390526c34b7b71116113b30b63ab2911d60991b604582015281516020819301605283015e016022019060308201611f4b60f21b9052603282017f7b2274726169745f74797065223a2243757272656e742056657273696f6e222c905267113b30b63ab2911d60c11b6052830152518092605a83015e01603001602a8101607d60f81b9052602b8101615d7d60f01b905203602a01601c19810182526003016108f990826121ea565b61090290612c06565b6040518091602082017f646174613a6170706c69636174696f6e2f6a736f6e3b6261736536342c000000905280516020819201603d84015e8101603d81015f905203603d01601f198101825261095890826121ea565b6040518091602082526020820161096e916121aa565b0390f35b5f190190600a906f181899199a1a9b1b9c1cb0b131b232b360811b8282061a8353048481156109a357919091610613565b50610618565b6105ca6040516109ba6040826121ea565b6008815267496e61637469766560c01b6020820152936105c4565b3461022d575f36600319011261022d57600a545f1981019081116109fe57602090604051908152f35b634e487b7160e01b5f52601160045260245ffd5b3461022d57608036600319011261022d57610a2b61217e565b610a33612194565b606435916001600160401b03831161022d573660238401121561022d57610a67610a71933690602481600401359101612226565b91604435916128d9565b005b3461022d575f36600319011261022d576020611388604051908152f35b3461022d57604036600319011261022d576004356024356001600160401b03811161022d57610ac390369060040161225c565b90610acd81612a19565b336001600160a01b0390911603610c3157805f526007602052610af960ff600760405f20015416612606565b805f526007602052600160405f200182516001600160401b038111610c1d57610b22825461234d565b601f8111610bd8575b506020601f8211600114610b7757819293945f92610b6c575b50508160011b915f199060031b1c19161790555b5f52600760205242600660405f2001555f80f35b015190508480610b44565b601f19821690835f52805f20915f5b818110610bc057509583600195969710610ba8575b505050811b019055610b58565b01515f1960f88460031b161c19169055848080610b9b565b9192602060018192868b015181550194019201610b86565b825f5260205f20601f830160051c81019160208410610c13575b601f0160051c01905b818110610c085750610b2b565b5f8155600101610bfb565b9091508190610bf2565b634e487b7160e01b5f52604160045260245ffd5b60405162461bcd60e51b81526020600482015260136024820152722737ba103a34329030b3b2b73a1037bbb732b960691b6044820152606490fd5b3461022d57604036600319011261022d57610c8561217e565b506024358015150361022d5760405162461bcd60e51b815260206004820152603060248201527f414d41494964656e746974793a20736f756c626f756e6420746f6b656e20636160448201526f1b9b9bdd08189948185c1c1c9bdd995960821b6064820152608490fd5b3461022d575f36600319011261022d5761096e610d0a612439565b6040519182916020835260208301906121aa565b3461022d575f36600319011261022d57602060405160648152f35b3461022d575f36600319011261022d576006546040516001600160a01b039091168152602090f35b3461022d57602036600319011261022d57600435610d7d61282f565b505f81815260026020526040902054610da0906001600160a01b0316151561257f565b5f52600760205260405f20600860405191610dba836121ce565b610dc3816124ce565b8352610dd1600182016124ce565b6020840152600281015460408401526003810154606084015260048101546080840152600581015460a0840152600681015460c084015260ff600782015416151560e0840152015480610100830152620f42400390620f424082116109fe57610e4c91620f42406040519384936060855260608501906122b4565b918160208501520460408301520390f35b3461022d57602036600319011261022d576004355f81815260026020526040902054610e93906001600160a01b0316151561257f565b5f5260076020526020600260405f200154604051908152f35b3461022d57606036600319011261022d576004356024356044356001600160401b03811161022d57610ee290369060040161225c565b90335f52600960205260ff60405f2054168015610fcf575b610f03906125c2565b5f83815260026020526040902054610f25906001600160a01b0316151561257f565b6127108111610f92575f80516020612e7483398151915291835f526007602052610f5860ff600760405f20015416612606565b5f848152600760205260409081902060028101805490859055426006909201919091559051928392610f8d929091908461265f565b0390a2005b60405162461bcd60e51b815260206004820152601560248201527453636f72652065786365656473206d6178696d756d60581b6044820152606490fd5b506006546001600160a01b03163314610efa565b3461022d575f36600319011261022d57611029610ffe61232a565b61096e611009612385565b61104c611014612439565b9160405195869560c0875260c08701906121aa565b90620f4240602087015246604087015230606087015285820360808701526121aa565b9083820360a08501526121aa565b3461022d575f36600319011261022d576020612710604051908152f35b3461022d575f36600319011261022d5761108f612a4d565b600680546001600160a01b031981169091555f906001600160a01b03167f8be0079c531659141344cd1fd0a4f28419497f9722a3daafe3b4186f6b6457e08280a3005b3461022d57602036600319011261022d576001600160a01b036110f361217e565b168015611110575f526003602052602060405f2054604051908152f35b6322718ad960e21b5f525f60045260245ffd5b3461022d57602036600319011261022d57602061115f600435805f526002835261115a60018060a01b0360405f205416151561257f565b612882565b604051908152f35b3461022d57602036600319011261022d57600435335f52600960205260ff60405f2054168015611238575b61119b906125c2565b5f818152600260205260409020546111bd906001600160a01b0316151561257f565b805f5260076020526111d860ff600760405f20015416612606565b805f526007602052600460405f20016111f18154612874565b90555f818152600760209081526040918290204260068201556004015491519182527ff50347c1b0d5c8f84e02ff4712be678361423dc2271f0fad6dc5dfa5ce2fc0ad91a2005b506006546001600160a01b03163314611192565b3461022d57602036600319011261022d57602061126a600435612a19565b6040516001600160a01b039091168152f35b3461022d57602036600319011261022d576001600160a01b0361129d61217e565b165f526009602052602060ff60405f2054166040519015158152f35b3461022d57602036600319011261022d576112d261217e565b6112da612a4d565b6001600160a01b03165f818152600960205260408120805460ff191690557f3c9c4af7c4c66de2ffc68abfa4e0d275fbce92f248473bca0d6787dc8caf8e319080a2005b3461022d57602036600319011261022d576004356001600160401b03811161022d5761134e90369060040161225c565b611356612a4d565b80516001600160401b038111610c1d57611371600b5461234d565b601f811161141e575b50602091601f82116001146113b6579181925f926113ab575b50505f19600383901b1c191660019190911b17600b55005b015190508280611393565b601f19821692600b5f525f80516020612e94833981519152915f5b858110611406575083600195106113ee575b505050811b01600b55005b01515f1960f88460031b161c191690558280806113e3565b919260206001819286850151815501940192016113d1565b600b5f52601f820160051c5f80516020612e94833981519152019060208310611471575b601f0160051c5f80516020612e9483398151915201905b818110611466575061137a565b5f8155600101611459565b5f80516020612e948339815191529150611442565b3461022d57602036600319011261022d576004355f52600760205261150160405f206114b1816124ce565b906114be600182016124ce565b6002820154916003810154600482015460058301549060068401549261150f600860ff600788015416960154966040519a8b9a6101208c526101208c01906121aa565b908a820360208c01526121aa565b9660408901526060880152608087015260a086015260c0850152151560e08401526101008301520390f35b3461022d57606036600319011261022d5761155361217e565b6024356001600160401b03811161022d5761157290369060040161225c565b6044356001600160401b03811161022d5761159190369060040161225c565b9161159a612a4d565b60027f9b779b17422d0df92223018b32b4d1fa46e071723d6817e2486d003becc55f005414611c2e5760027f9b779b17422d0df92223018b32b4d1fa46e071723d6817e2486d003becc55f00556001600160a01b0381165f90815260086020526040902054611be95781518015159081611bdd575b5015611ba257600a549161162283612874565b600a556001600160a01b03821615611b8f575f838152600260205260409020546001600160a01b0316151580611b87575b611b26575f838152600260205260409020546001600160a01b03168015159081611af2575b6001600160a01b0384165f818152600360209081526040808320805460010190558883526002909152812080546001600160a01b0319168317905586919083907fddf252ad1be2c89b69c2b068fc378daa952ba7f163c4a11628f55a4df523b3ef9080a450611adf57611388936040516116f1816121ce565b82815260208101908282528660408201525f60608201525f60808201524260a08201524260c0820152600160e0820152620f4240610100820152855f52600760205260405f209181518051906001600160401b038211610c1d578190611757865461234d565b601f8111611a8f575b50602090601f8311600114611a2c575f92611a21575b50508160011b915f199060031b1c19161783555b518051906001600160401b038211610c1d576117a9600185015461234d565b601f81116119d9575b5091602098959391889795938a90601f83116001146119285760a097958a9560086101007fd4b61c3a4ccd88edcd0625cf5ceda3452d33ebf07a06a80254536b0976e3766797876118a5985f80516020612e748339815191529f9d986118b2985f9261191d575b50508160011b915f199060031b1c19161760018501555b6040810151600285015560608101516003850155608081015160048501558c810151600585015560c081015160068501556007840160e0820151151560ff8019835416911617905501519101556001808a1b0387165f5260088d528560405f20556040519384936060855260608501906121aa565b908382038e8501526121aa565b94620f42406040830152600180891b0316940390a3604051905f8252868201526060604082015260076060820152661a5b9a5d1a585b60ca1b6080820152a260017f9b779b17422d0df92223018b32b4d1fa46e071723d6817e2486d003becc55f0055604051908152f35b015190505f80611819565b90600185015f52805f20915f5b601f19851681106119bf5750958a9560086101007fd4b61c3a4ccd88edcd0625cf5ceda3452d33ebf07a06a80254536b0976e37667976001885f80516020612e748339815191529f9d9860a09f9d986118b2996118a59c601f198116106119a7575b505050811b016001850155611830565b01515f1960f88460031b161c191690555f8080611997565b8183015184558c9b50600190930192918d01918d01611935565b600185015f5260205f20601f840160051c81019160208510611a17575b601f0160051c01905b818110611a0c57506117b2565b5f81556001016119ff565b90915081906119f6565b015190508a80611776565b5f8781528281209350601f198516905b818110611a775750908460019594939210611a5f575b505050811b01835561178a565b01515f1960f88460031b161c191690558a8080611a52565b92936020600181928786015181550195019301611a3c565b909150855f5260205f20601f840160051c81019160208510611ad5575b90601f859493920160051c01905b818110611ac75750611760565b5f8155849350600101611aba565b9091508190611aac565b6339e3563760e11b5f525f60045260245ffd5b845f52600460205260405f206001600160601b0360a01b8154169055805f52600360205260405f205f198154019055611678565b60405162461bcd60e51b815260206004820152603360248201527f414d41494964656e746974793a20736f756c626f756e6420746f6b656e2063616044820152721b9b9bdd081899481d1c985b9cd9995c9c9959606a1b6064820152608490fd5b506001611653565b633250574960e11b5f525f60045260245ffd5b60405162461bcd60e51b8152602060048201526013602482015272092dcecc2d8d2c840dcc2daca40d8cadccee8d606b1b6044820152606490fd5b6040915011158461160f565b60405162461bcd60e51b815260206004820152601c60248201527f4164647265737320616c72656164792068617320616e206167656e74000000006044820152606490fd5b633ee5aeb560e01b5f5260045ffd5b3461022d57610a71611c4e3661227a565b9060405192611c5e6020856121ea565b5f84526128d9565b3461022d575f36600319011261022d576020604051620f42408152f35b3461022d575f36600319011261022d5761096e610d0a61232a565b3461022d57602036600319011261022d57600435611cba61282f565b505f81815260026020526040902054611cdd906001600160a01b0316151561257f565b5f52600760205261096e60405f20600860405191611cfa836121ce565b611d03816124ce565b8352611d11600182016124ce565b6020840152600281015460408401526003810154606084015260048101546080840152600581015460a0840152600681015460c084015260ff600782015416151560e084015201546101008201526040519182916020835260208301906122b4565b3461022d57610a71611d843661227a565b9161267b565b3461022d57606036600319011261022d576004356024356044356001600160401b03811161022d57611dc090369060040161225c565b335f52600960205260ff60405f2054168015611efd575b611de0906125c2565b5f83815260026020526040902054611e02906001600160a01b0316151561257f565b825f526007602052611e1d60ff600760405f20015416612606565b5f8381526007602052604081206002015492908112611ead57612710908382038281116109fe57611e4d9161256c565b8115611e9957048201918281116109fe57610f8d5f80516020612e7483398151915293925b5f86815260076020526040908190206002810186905542600690910155519384938461265f565b634e487b7160e01b5f52601260045260245ffd5b600160ff1b81146109fe5782611ec4915f0361256c565b916127105f80516020612e74833981519152930480821115611ef357611eed610f8d9183612652565b92611e72565b50610f8d5f611eed565b506006546001600160a01b03163314611dd7565b3461022d57602036600319011261022d57600435611f2d612a4d565b5f81815260026020526040902054611f4f906001600160a01b0316151561257f565b805f52600760205260ff600760405f2001541615611fa457805f526007602052600760405f200160ff1981541690557fc2fb7f8575ac3990e70361684edfc4d283931ea9a03dfa28766bf376a3934aa25f80a2005b60405162461bcd60e51b815260206004820152601060248201526f416c726561647920696e61637469766560801b6044820152606490fd5b3461022d57602036600319011261022d57611ff561217e565b611ffd612a4d565b6001600160a01b03165f818152600960205260408120805460ff191660011790557f5a7a3f71a35f5e2589980d29d1c6d8c75e39657751190874081e55208bae24b79080a2005b3461022d57604036600319011261022d5761205d61217e565b5060405162461bcd60e51b815260206004820152603060248201527f414d41494964656e746974793a20736f756c626f756e6420746f6b656e20636160448201526f1b9b9bdd08189948185c1c1c9bdd995960821b6064820152608490fd5b3461022d57602036600319011261022d576004356120d981612a19565b505f526004602052602060018060a01b0360405f205416604051908152f35b3461022d575f36600319011261022d5761096e610d0a612385565b3461022d57602036600319011261022d576004359063ffffffff60e01b821680920361022d576020916380ac58cd60e01b811490811561216d575b811561215c575b5015158152f35b6301ffc9a760e01b14905083612155565b635b5e139f60e01b8114915061214e565b600435906001600160a01b038216820361022d57565b602435906001600160a01b038216820361022d57565b805180835260209291819084018484015e5f828201840152601f01601f1916010190565b61012081019081106001600160401b03821117610c1d57604052565b90601f801991011681019081106001600160401b03821117610c1d57604052565b6001600160401b038111610c1d57601f01601f191660200190565b9291926122328261220b565b9161224060405193846121ea565b82948184528183011161022d578281602093845f960137010152565b9080601f8301121561022d5781602061227793359101612226565b90565b606090600319011261022d576004356001600160a01b038116810361022d57906024356001600160a01b038116810361022d579060443590565b90610100806122e36122d1855161012086526101208601906121aa565b602086015185820360208701526121aa565b9360408101516040850152606081015160608501526080810151608085015260a081015160a085015260c081015160c085015260e0810151151560e0850152015191015290565b604051906123396040836121ea565b60058252640312e302e360dc1b6020830152565b90600182811c9216801561237b575b602083101461236757565b634e487b7160e01b5f52602260045260245ffd5b91607f169161235c565b604051905f825f54916123978361234d565b808352926001811690811561241a57506001146123bd575b6123bb925003836121ea565b565b505f80805290917f290decd9548b62a8d60345a988386fc84ba6bc95484008f6362f93160ef3e5635b8183106123fe5750509060206123bb928201016123af565b60209193508060019154838589010152019101909184926123e6565b602092506123bb94915060ff191682840152151560051b8201016123af565b604051905f826001549161244c8361234d565b808352926001811690811561241a575060011461246f576123bb925003836121ea565b5060015f90815290917fb10e2d527612073b26eecdfd717e6a320cf44b4afac2b0732d9fcbe2b7fa0cf65b8183106124b25750509060206123bb928201016123af565b602091935080600191548385890101520191019091849261249a565b9060405191825f8254926124e18461234d565b808452936001811690811561254a5750600114612506575b506123bb925003836121ea565b90505f9291925260205f20905f915b81831061252e5750509060206123bb928201015f6124f9565b6020919350806001915483858901015201910190918492612515565b9050602092506123bb94915060ff191682840152151560051b8201015f6124f9565b818102929181159184041417156109fe57565b1561258657565b60405162461bcd60e51b81526020600482015260146024820152731059d95b9d08191bd95cc81b9bdd08195e1a5cdd60621b6044820152606490fd5b156125c957565b60405162461bcd60e51b81526020600482015260156024820152744e6f7420617574686f72697a6564206f7261636c6560581b6044820152606490fd5b1561260d57565b60405162461bcd60e51b81526020600482015260136024820152724167656e74206973206e6f742061637469766560681b6044820152606490fd5b8115611e99570490565b919082039182116109fe57565b61227793926060928252602082015281604082015201906121aa565b6001600160a01b0390911691908215611b8f575f828152600260205260409020546001600160a01b0316151580612827575b611b26575f828152600260205260409020546001600160a01b031692829033151580612792575b508461275e575b805f52600360205260405f2060018154019055815f52600260205260405f20816001600160601b0360a01b825416179055847fddf252ad1be2c89b69c2b068fc378daa952ba7f163c4a11628f55a4df523b3ef5f80a46001600160a01b031680830361274657505050565b6364283d7b60e01b5f5260045260245260445260645ffd5b815f52600460205260405f206001600160601b0360a01b8154169055845f52600360205260405f205f1981540190556126db565b909150806127d6575b156127a85782905f6126d4565b82846127c057637e27328960e01b5f5260045260245ffd5b63177e802f60e01b5f523360045260245260445ffd5b503384148015612805575b8061279b57505f838152600460205260409020546001600160a01b0316331461279b565b505f84815260056020908152604080832033845290915290205460ff166127e1565b5060016126ad565b6040519061283c826121ce565b5f6101008360608152606060208201528260408201528260608201528260808201528260a08201528260c08201528260e08201520152565b5f1981146109fe5760010190565b805f526007602052600360405f200154156128d457805f526007602052600460405f200154612710908181029181830414901517156109fe57612277915f526007602052600360405f20015490612648565b505f90565b92916128e681838661267b565b813b6128f3575b50505050565b604051630a85bd0160e11b81523360048201526001600160a01b039485166024820152604481019190915260806064820152921691906020908290819061293e9060848301906121aa565b03815f865af15f91816129d4575b506129a157503d1561299a573d6129628161220b565b9061297060405192836121ea565b81523d5f602083013e5b805190816129955782633250574960e11b5f5260045260245ffd5b602001fd5b606061297a565b6001600160e01b03191663757a42ff60e11b016129c257505f8080806128ed565b633250574960e11b5f5260045260245ffd5b9091506020813d602011612a11575b816129f0602093836121ea565b8101031261022d57516001600160e01b03198116810361022d57905f61294c565b3d91506129e3565b5f818152600260205260409020546001600160a01b0316908115612a3b575090565b637e27328960e01b5f5260045260245ffd5b6006546001600160a01b03163303612a6157565b63118cdaa760e01b5f523360045260245ffd5b805f9172184f03e93ff9f4daa797ed6e38ed64bf6a1f0160401b821015612bbe575b806d04ee2d6d415b85acef8100000000600a921015612ba3575b662386f26fc10000811015612b8f575b6305f5e100811015612b7e575b612710811015612b6f575b6064811015612b61575b1015612b56575b600a60216001840193612afb8561220b565b94612b0960405196876121ea565b808652612b18601f199161220b565b013660208701378401015b5f1901916f181899199a1a9b1b9c1cb0b131b232b360811b8282061a8353048015612b5157600a9091612b23565b505090565b600190910190612ae9565b606460029104930192612ae2565b61271060049104930192612ad8565b6305f5e10060089104930192612acd565b662386f26fc1000060109104930192612ac0565b6d04ee2d6d415b85acef810000000060209104930192612ab0565b506040915072184f03e93ff9f4daa797ed6e38ed64bf6a1f0160401b8104612a96565b908151811015612bf2570160200190565b634e487b7160e01b5f52603260045260245ffd5b604051612c146060826121ea565b604081527f4142434445464748494a4b4c4d4e4f505152535455565758595a61626364656660208201527f6768696a6b6c6d6e6f707172737475767778797a303132333435363738392b2f604082015281518015612e5c57600281018082116109fe5760039004600281901b93906001600160fe1b038116036109fe57612c9a8461220b565b93612ca860405195866121ea565b808552612cb7601f199161220b565b013660208601375f905f5b838110612cd157505050505090565b612cdb8183612be1565b5160018201808311806109fe57868210908115612e545750612cfe5f9286612be1565b5160f81c915b600285019182861193846109fe57898410948515612e4b5750612d285f9489612be1565b5160f81c955b60e81c62ff00001660089190911b61ff00161760ff861617918b612d7a6001600160f81b0319612d65601287901c603f168f612be1565b51169a612d7181612874565b9b5f1a92612be1565b538b612d996001600160f81b0319612d65600c87901c603f168f612be1565b536109fe5715612e3f576001600160f81b031990612dbd9060061c603f168a612be1565b5116955b612dd7612dcd82612874565b975f1a918b612be1565b536109fe5715612e33576001600160f81b031990612df890603f1687612be1565b5116925b612e12612e0882612874565b945f1a9188612be1565b536003810180911115612cc257634e487b7160e01b5f52601160045260245ffd5b50603d60f81b92612dfc565b50603d60f81b95612dc1565b93505f95612d2e565b5f9250612d04565b505050604051612e6d6020826121ea565b5f81529056fe6d8b292e5cce163ffbb78503c64480a6f7baad791d8ba1d2b2381742910f6a480175b7a638427703f0dbe7bb9bbf987a2551717b34e79f33b5b1008d1fa01db9a26469706673582212206dbc719e117fecc422fc780de9d77ddd8212fc1c036879c93f5b3cbf16b1181164736f6c634300081a0033","linkReferences":{}},"methodIdentifiers":{"CONTRACT_VERSION()":"38b90333","CONTRACT_VERSION_NUMBER()":"3fc070b9","INITIAL_TRUST_SCORE()":"a91a36e9","MAX_TRUST_SCORE()":"74c8d377","TRUST_PRECISION()":"941b6681","agents(uint256)":"513856c8","applyTrustDelta(uint256,int256,string)":"192db2eb","approve(address,uint256)":"095ea7b3","authorizeOracle(address)":"0f13b763","authorizedOracles(address)":"61c992a3","balanceOf(address)":"70a08231","deactivateAgent(uint256)":"11ba6b4a","getAgent(uint256)":"2de5aaf7","getAgentByOwner(address)":"0381ee79","getAgentVersion(uint256)":"f6f5f4be","getAgentWithVersionInfo(uint256)":"8d9ce9da","getApproved(uint256)":"081812fc","getConfirmationRate(uint256)":"702f095f","getContractInfo()":"7cc1f867","getTrustScore(uint256)":"83f3d448","isApprovedForAll(address,address)":"e985e9c5","isLatestVersion(uint256)":"ea2d6d2b","mintAgent(address,string,string)":"4f18dd22","name()":"06fdde03","owner()":"8da5cb5b","ownerOf(uint256)":"6352211e","ownerToAgent(address)":"fc7521d9","recordAction(uint256)":"d6300ce1","recordConfirmation(uint256)":"6adf9181","renounceOwnership()":"715018a6","revokeOracle(address)":"5983e6b0","safeTransferFrom(address,address,uint256)":"42842e0e","safeTransferFrom(address,address,uint256,bytes)":"b88d4fde","setApprovalForAll(address,bool)":"a22cb465","setBaseURI(string)":"55f804b3","supportsInterface(bytes4)":"01ffc9a7","symbol()":"95d89b41","tokenURI(uint256)":"c87b56dd","totalAgents()":"c5053712","transferFrom(address,address,uint256)":"23b872dd","transferOwnership(address)":"f2fde38b","updateServiceEndpoint(uint256,string)":"a4032ca0","updateTrustScore(uint256,uint256,string)":"8216a091"},"id":0}